{
  "contractName": "SupplyChain",
  "abi": [
    {
      "inputs": [],
      "payable": true,
      "stateMutability": "payable",
      "type": "constructor"
    },
    {
      "anonymous": false,
      "inputs": [
        {
          "indexed": true,
          "internalType": "address",
          "name": "account",
          "type": "address"
        }
      ],
      "name": "ConsumerAdded",
      "type": "event"
    },
    {
      "anonymous": false,
      "inputs": [
        {
          "indexed": true,
          "internalType": "address",
          "name": "account",
          "type": "address"
        }
      ],
      "name": "ConsumerRemoved",
      "type": "event"
    },
    {
      "anonymous": false,
      "inputs": [
        {
          "indexed": true,
          "internalType": "address",
          "name": "account",
          "type": "address"
        }
      ],
      "name": "DistributorAdded",
      "type": "event"
    },
    {
      "anonymous": false,
      "inputs": [
        {
          "indexed": true,
          "internalType": "address",
          "name": "account",
          "type": "address"
        }
      ],
      "name": "DistributorRemoved",
      "type": "event"
    },
    {
      "anonymous": false,
      "inputs": [
        {
          "indexed": true,
          "internalType": "address",
          "name": "account",
          "type": "address"
        }
      ],
      "name": "FarmerAdded",
      "type": "event"
    },
    {
      "anonymous": false,
      "inputs": [
        {
          "indexed": true,
          "internalType": "address",
          "name": "account",
          "type": "address"
        }
      ],
      "name": "FarmerRemoved",
      "type": "event"
    },
    {
      "anonymous": false,
      "inputs": [
        {
          "indexed": false,
          "internalType": "uint256",
          "name": "upc",
          "type": "uint256"
        }
      ],
      "name": "ForSale",
      "type": "event"
    },
    {
      "anonymous": false,
      "inputs": [
        {
          "indexed": false,
          "internalType": "uint256",
          "name": "upc",
          "type": "uint256"
        }
      ],
      "name": "Harvested",
      "type": "event"
    },
    {
      "anonymous": false,
      "inputs": [
        {
          "indexed": false,
          "internalType": "uint256",
          "name": "upc",
          "type": "uint256"
        }
      ],
      "name": "Packed",
      "type": "event"
    },
    {
      "anonymous": false,
      "inputs": [
        {
          "indexed": false,
          "internalType": "uint256",
          "name": "upc",
          "type": "uint256"
        }
      ],
      "name": "Processed",
      "type": "event"
    },
    {
      "anonymous": false,
      "inputs": [
        {
          "indexed": false,
          "internalType": "uint256",
          "name": "upc",
          "type": "uint256"
        }
      ],
      "name": "Purchased",
      "type": "event"
    },
    {
      "anonymous": false,
      "inputs": [
        {
          "indexed": false,
          "internalType": "uint256",
          "name": "upc",
          "type": "uint256"
        }
      ],
      "name": "Received",
      "type": "event"
    },
    {
      "anonymous": false,
      "inputs": [
        {
          "indexed": false,
          "internalType": "address",
          "name": "account",
          "type": "address"
        }
      ],
      "name": "RetailerAdded",
      "type": "event"
    },
    {
      "anonymous": false,
      "inputs": [
        {
          "indexed": false,
          "internalType": "address",
          "name": "account",
          "type": "address"
        }
      ],
      "name": "RetailerRemoved",
      "type": "event"
    },
    {
      "anonymous": false,
      "inputs": [
        {
          "indexed": false,
          "internalType": "uint256",
          "name": "upc",
          "type": "uint256"
        }
      ],
      "name": "Shipped",
      "type": "event"
    },
    {
      "anonymous": false,
      "inputs": [
        {
          "indexed": false,
          "internalType": "uint256",
          "name": "upc",
          "type": "uint256"
        }
      ],
      "name": "Sold",
      "type": "event"
    },
    {
      "anonymous": false,
      "inputs": [
        {
          "indexed": true,
          "internalType": "address",
          "name": "oldOwner",
          "type": "address"
        },
        {
          "indexed": true,
          "internalType": "address",
          "name": "newOwner",
          "type": "address"
        }
      ],
      "name": "TransferOwnership",
      "type": "event"
    },
    {
      "constant": true,
      "inputs": [],
      "name": "Sender",
      "outputs": [
        {
          "internalType": "address",
          "name": "",
          "type": "address"
        }
      ],
      "payable": false,
      "stateMutability": "view",
      "type": "function"
    },
    {
      "constant": false,
      "inputs": [
        {
          "internalType": "address",
          "name": "account",
          "type": "address"
        }
      ],
      "name": "addConsumer",
      "outputs": [],
      "payable": false,
      "stateMutability": "nonpayable",
      "type": "function"
    },
    {
      "constant": false,
      "inputs": [
        {
          "internalType": "address",
          "name": "account",
          "type": "address"
        }
      ],
      "name": "addDistributor",
      "outputs": [],
      "payable": false,
      "stateMutability": "nonpayable",
      "type": "function"
    },
    {
      "constant": false,
      "inputs": [
        {
          "internalType": "address",
          "name": "account",
          "type": "address"
        }
      ],
      "name": "addFarmer",
      "outputs": [],
      "payable": false,
      "stateMutability": "nonpayable",
      "type": "function"
    },
    {
      "constant": false,
      "inputs": [
        {
          "internalType": "address",
          "name": "account",
          "type": "address"
        }
      ],
      "name": "addRetailer",
      "outputs": [],
      "payable": false,
      "stateMutability": "nonpayable",
      "type": "function"
    },
    {
      "constant": true,
      "inputs": [
        {
          "internalType": "address",
          "name": "account",
          "type": "address"
        }
      ],
      "name": "isConsumer",
      "outputs": [
        {
          "internalType": "bool",
          "name": "",
          "type": "bool"
        }
      ],
      "payable": false,
      "stateMutability": "view",
      "type": "function"
    },
    {
      "constant": true,
      "inputs": [
        {
          "internalType": "address",
          "name": "account",
          "type": "address"
        }
      ],
      "name": "isDistributor",
      "outputs": [
        {
          "internalType": "bool",
          "name": "",
          "type": "bool"
        }
      ],
      "payable": false,
      "stateMutability": "view",
      "type": "function"
    },
    {
      "constant": true,
      "inputs": [
        {
          "internalType": "address",
          "name": "account",
          "type": "address"
        }
      ],
      "name": "isFarmer",
      "outputs": [
        {
          "internalType": "bool",
          "name": "",
          "type": "bool"
        }
      ],
      "payable": false,
      "stateMutability": "view",
      "type": "function"
    },
    {
      "constant": true,
      "inputs": [],
      "name": "isOwner",
      "outputs": [
        {
          "internalType": "bool",
          "name": "",
          "type": "bool"
        }
      ],
      "payable": false,
      "stateMutability": "view",
      "type": "function"
    },
    {
      "constant": true,
      "inputs": [
        {
          "internalType": "address",
          "name": "account",
          "type": "address"
        }
      ],
      "name": "isRetailer",
      "outputs": [
        {
          "internalType": "bool",
          "name": "",
          "type": "bool"
        }
      ],
      "payable": false,
      "stateMutability": "view",
      "type": "function"
    },
    {
      "constant": true,
      "inputs": [],
      "name": "origOwner",
      "outputs": [
        {
          "internalType": "address payable",
          "name": "",
          "type": "address"
        }
      ],
      "payable": false,
      "stateMutability": "view",
      "type": "function"
    },
    {
      "constant": true,
      "inputs": [],
      "name": "owner",
      "outputs": [
        {
          "internalType": "address",
          "name": "",
          "type": "address"
        }
      ],
      "payable": false,
      "stateMutability": "view",
      "type": "function"
    },
    {
      "constant": false,
      "inputs": [],
      "name": "renounceConsumer",
      "outputs": [],
      "payable": false,
      "stateMutability": "nonpayable",
      "type": "function"
    },
    {
      "constant": false,
      "inputs": [],
      "name": "renounceDistributor",
      "outputs": [],
      "payable": false,
      "stateMutability": "nonpayable",
      "type": "function"
    },
    {
      "constant": false,
      "inputs": [],
      "name": "renounceFarmer",
      "outputs": [],
      "payable": false,
      "stateMutability": "nonpayable",
      "type": "function"
    },
    {
      "constant": false,
      "inputs": [],
      "name": "renounceOwnership",
      "outputs": [],
      "payable": false,
      "stateMutability": "nonpayable",
      "type": "function"
    },
    {
      "constant": false,
      "inputs": [],
      "name": "renounceRetailer",
      "outputs": [],
      "payable": false,
      "stateMutability": "nonpayable",
      "type": "function"
    },
    {
      "constant": false,
      "inputs": [
        {
          "internalType": "address payable",
          "name": "newOwner",
          "type": "address"
        }
      ],
      "name": "transferOwnership",
      "outputs": [],
      "payable": false,
      "stateMutability": "nonpayable",
      "type": "function"
    },
    {
      "constant": false,
      "inputs": [],
      "name": "kill",
      "outputs": [],
      "payable": false,
      "stateMutability": "nonpayable",
      "type": "function"
    },
    {
      "constant": false,
      "inputs": [
        {
          "internalType": "uint256",
          "name": "_upc",
          "type": "uint256"
        },
        {
          "internalType": "address payable",
          "name": "_originFarmerID",
          "type": "address"
        },
        {
          "internalType": "string",
          "name": "_originFarmName",
          "type": "string"
        },
        {
          "internalType": "string",
          "name": "_originFarmInformation",
          "type": "string"
        },
        {
          "internalType": "string",
          "name": "_originFarmLatitude",
          "type": "string"
        },
        {
          "internalType": "string",
          "name": "_originFarmLongitude",
          "type": "string"
        },
        {
          "internalType": "string",
          "name": "_productNotes",
          "type": "string"
        }
      ],
      "name": "harvestItem",
      "outputs": [],
      "payable": false,
      "stateMutability": "nonpayable",
      "type": "function"
    },
    {
      "constant": false,
      "inputs": [
        {
          "internalType": "uint256",
          "name": "_upc",
          "type": "uint256"
        }
      ],
      "name": "processItem",
      "outputs": [],
      "payable": false,
      "stateMutability": "nonpayable",
      "type": "function"
    },
    {
      "constant": false,
      "inputs": [
        {
          "internalType": "uint256",
          "name": "_upc",
          "type": "uint256"
        }
      ],
      "name": "packItem",
      "outputs": [],
      "payable": false,
      "stateMutability": "nonpayable",
      "type": "function"
    },
    {
      "constant": false,
      "inputs": [
        {
          "internalType": "uint256",
          "name": "_upc",
          "type": "uint256"
        },
        {
          "internalType": "uint256",
          "name": "_price",
          "type": "uint256"
        }
      ],
      "name": "sellItem",
      "outputs": [],
      "payable": false,
      "stateMutability": "nonpayable",
      "type": "function"
    },
    {
      "constant": false,
      "inputs": [
        {
          "internalType": "uint256",
          "name": "_upc",
          "type": "uint256"
        }
      ],
      "name": "buyItem",
      "outputs": [],
      "payable": true,
      "stateMutability": "payable",
      "type": "function"
    },
    {
      "constant": false,
      "inputs": [
        {
          "internalType": "uint256",
          "name": "_upc",
          "type": "uint256"
        }
      ],
      "name": "shipItem",
      "outputs": [],
      "payable": false,
      "stateMutability": "nonpayable",
      "type": "function"
    },
    {
      "constant": false,
      "inputs": [
        {
          "internalType": "uint256",
          "name": "_upc",
          "type": "uint256"
        }
      ],
      "name": "receiveItem",
      "outputs": [],
      "payable": false,
      "stateMutability": "nonpayable",
      "type": "function"
    },
    {
      "constant": false,
      "inputs": [
        {
          "internalType": "uint256",
          "name": "_upc",
          "type": "uint256"
        }
      ],
      "name": "purchaseItem",
      "outputs": [],
      "payable": false,
      "stateMutability": "nonpayable",
      "type": "function"
    },
    {
      "constant": true,
      "inputs": [
        {
          "internalType": "uint256",
          "name": "_upc",
          "type": "uint256"
        }
      ],
      "name": "fetchItemBufferOne",
      "outputs": [
        {
          "internalType": "uint256",
          "name": "itemSKU",
          "type": "uint256"
        },
        {
          "internalType": "uint256",
          "name": "itemUPC",
          "type": "uint256"
        },
        {
          "internalType": "address",
          "name": "ownerID",
          "type": "address"
        },
        {
          "internalType": "address",
          "name": "originFarmerID",
          "type": "address"
        },
        {
          "internalType": "string",
          "name": "originFarmName",
          "type": "string"
        },
        {
          "internalType": "string",
          "name": "originFarmInformation",
          "type": "string"
        },
        {
          "internalType": "string",
          "name": "originFarmLatitude",
          "type": "string"
        },
        {
          "internalType": "string",
          "name": "originFarmLongitude",
          "type": "string"
        }
      ],
      "payable": false,
      "stateMutability": "view",
      "type": "function"
    },
    {
      "constant": true,
      "inputs": [
        {
          "internalType": "uint256",
          "name": "_upc",
          "type": "uint256"
        }
      ],
      "name": "fetchItemBufferTwo",
      "outputs": [
        {
          "internalType": "uint256",
          "name": "itemSKU",
          "type": "uint256"
        },
        {
          "internalType": "uint256",
          "name": "itemUPC",
          "type": "uint256"
        },
        {
          "internalType": "uint256",
          "name": "productID",
          "type": "uint256"
        },
        {
          "internalType": "string",
          "name": "productNotes",
          "type": "string"
        },
        {
          "internalType": "uint256",
          "name": "productPrice",
          "type": "uint256"
        },
        {
          "internalType": "uint256",
          "name": "itemState",
          "type": "uint256"
        },
        {
          "internalType": "address",
          "name": "distributorID",
          "type": "address"
        },
        {
          "internalType": "address",
          "name": "retailerID",
          "type": "address"
        },
        {
          "internalType": "address",
          "name": "consumerID",
          "type": "address"
        }
      ],
      "payable": false,
      "stateMutability": "view",
      "type": "function"
    }
  ],
  "bytecode": "0x6080604052336000806101000a81548173ffffffffffffffffffffffffffffffffffffffff021916908373ffffffffffffffffffffffffffffffffffffffff1602179055506000809054906101000a900473ffffffffffffffffffffffffffffffffffffffff1673ffffffffffffffffffffffffffffffffffffffff16600073ffffffffffffffffffffffffffffffffffffffff167f5c486528ec3e3f0ea91181cff8116f02bfa350e03b8b6f12e00765adbb5af85c60405160405180910390a3620000d1336200019b60201b60201c565b620000e233620001f960201b60201c565b33600460006101000a81548173ffffffffffffffffffffffffffffffffffffffff021916908373ffffffffffffffffffffffffffffffffffffffff16021790555062000134336200025760201b60201c565b6200014533620002b860201b60201c565b336000806101000a81548173ffffffffffffffffffffffffffffffffffffffff021916908373ffffffffffffffffffffffffffffffffffffffff160217905550600160078190555060016006819055506200053b565b620001b3600182620002d360201b620034da1760201c565b8073ffffffffffffffffffffffffffffffffffffffff167f28b26e7a3d20aedbc5f8f2ebf7da671c0491723a2b78f47a097b0e46dee0714260405160405180910390a250565b62000211600282620002d360201b620034da1760201c565b8073ffffffffffffffffffffffffffffffffffffffff167fddbf200aa634dc3fb81cfd68583dd1040d1c751d335e1d86b631bde3e977fea860405160405180910390a250565b62000272816003620002d360201b620034da1790919060201c565b8073ffffffffffffffffffffffffffffffffffffffff167f2e0ded4123377a3c2bc9a26f1717655a129e2f20752924d42e730ec89c83dbd060405160405180910390a250565b620002d0600582620002d360201b620034da1760201c565b50565b600073ffffffffffffffffffffffffffffffffffffffff168173ffffffffffffffffffffffffffffffffffffffff16141562000377576040517f08c379a00000000000000000000000000000000000000000000000000000000081526004018080602001828103825260198152602001807f496e76616c6964206163636f756e74206164647265737320210000000000000081525060200191505060405180910390fd5b6200038982826200043f60201b60201c565b15620003e1576040517f08c379a000000000000000000000000000000000000000000000000000000000815260040180806020018281038252602381526020018062003e076023913960400191505060405180910390fd5b60018260000160008373ffffffffffffffffffffffffffffffffffffffff1673ffffffffffffffffffffffffffffffffffffffff16815260200190815260200160002060006101000a81548160ff0219169083151502179055505050565b60008073ffffffffffffffffffffffffffffffffffffffff168273ffffffffffffffffffffffffffffffffffffffff161415620004e4576040517f08c379a00000000000000000000000000000000000000000000000000000000081526004018080602001828103825260198152602001807f496e76616c6964206163636f756e74206164647265737320210000000000000081525060200191505060405180910390fd5b8260000160008373ffffffffffffffffffffffffffffffffffffffff1673ffffffffffffffffffffffffffffffffffffffff16815260200190815260200160002060009054906101000a900460ff16905092915050565b6138bc806200054b6000396000f3fe6080604052600436106101c25760003560e01c80638da5cb5b116100f7578063d38ea5bf11610095578063f2fde38b11610064578063f2fde38b14610e64578063f30fc48014610eb5578063f61c899a14610ef0578063f68e3d0914610f2b576101c2565b8063d38ea5bf14610d8d578063db0e6a2f14610dc8578063e7fb74c714610ddf578063eea96c5714610e0d576101c2565b80638f32d59b116100d15780638f32d59b1461096c578063a26be9991461099b578063b9429069146109d6578063bdd8a6a814610a3f576101c2565b80638da5cb5b1461085b5780638ec4f505146108b25780638f0c86fa14610903576101c2565b806366225ff91161016457806377c459131161013e57806377c459131461051e57806380c3f96d1461078a57806380fc0ce4146107db578063834ff739146107f2576101c2565b806366225ff914610346578063715018a6146104b65780637250e224146104cd576101c2565b806349dae766116101a057806349dae766146102745780635da09b88146102af57806361e6982d14610318578063644241db1461032f576101c2565b8063112940f9146101c75780632d9235611461021857806341c0e1b51461025d575b600080fd5b3480156101d357600080fd5b50610216600480360360208110156101ea57600080fd5b81019080803573ffffffffffffffffffffffffffffffffffffffff169060200190929190505050610f82565b005b34801561022457600080fd5b5061025b6004803603604081101561023b57600080fd5b810190808035906020019092919080359060200190929190505050611009565b005b34801561026957600080fd5b5061027261129c565b005b34801561028057600080fd5b506102ad6004803603602081101561029757600080fd5b810190808035906020019092919050505061132d565b005b3480156102bb57600080fd5b506102fe600480360360208110156102d257600080fd5b81019080803573ffffffffffffffffffffffffffffffffffffffff1690602001909291905050506115a4565b604051808215151515815260200191505060405180910390f35b34801561032457600080fd5b5061032d6115b8565b005b34801561033b57600080fd5b506103446115c3565b005b34801561035257600080fd5b5061037f6004803603602081101561036957600080fd5b81019080803590602001909291905050506115ce565b604051808a8152602001898152602001888152602001806020018781526020018681526020018573ffffffffffffffffffffffffffffffffffffffff1673ffffffffffffffffffffffffffffffffffffffff1681526020018473ffffffffffffffffffffffffffffffffffffffff1673ffffffffffffffffffffffffffffffffffffffff1681526020018373ffffffffffffffffffffffffffffffffffffffff1673ffffffffffffffffffffffffffffffffffffffff168152602001828103825288818151815260200191508051906020019080838360005b83811015610473578082015181840152602081019050610458565b50505050905090810190601f1680156104a05780820380516001836020036101000a031916815260200191505b509a505050505050505050505060405180910390f35b3480156104c257600080fd5b506104cb6117f6565b005b3480156104d957600080fd5b5061051c600480360360208110156104f057600080fd5b81019080803573ffffffffffffffffffffffffffffffffffffffff16906020019092919050505061192f565b005b34801561052a57600080fd5b506105576004803603602081101561054157600080fd5b81019080803590602001909291905050506119b6565b604051808981526020018881526020018773ffffffffffffffffffffffffffffffffffffffff1673ffffffffffffffffffffffffffffffffffffffff1681526020018673ffffffffffffffffffffffffffffffffffffffff1673ffffffffffffffffffffffffffffffffffffffff16815260200180602001806020018060200180602001858103855289818151815260200191508051906020019080838360005b838110156106135780820151818401526020810190506105f8565b50505050905090810190601f1680156106405780820380516001836020036101000a031916815260200191505b50858103845288818151815260200191508051906020019080838360005b8381101561067957808201518184015260208101905061065e565b50505050905090810190601f1680156106a65780820380516001836020036101000a031916815260200191505b50858103835287818151815260200191508051906020019080838360005b838110156106df5780820151818401526020810190506106c4565b50505050905090810190601f16801561070c5780820380516001836020036101000a031916815260200191505b50858103825286818151815260200191508051906020019080838360005b8381101561074557808201518184015260208101905061072a565b50505050905090810190601f1680156107725780820380516001836020036101000a031916815260200191505b509c5050505050505050505050505060405180910390f35b34801561079657600080fd5b506107d9600480360360208110156107ad57600080fd5b81019080803573ffffffffffffffffffffffffffffffffffffffff169060200190929190505050611d4d565b005b3480156107e757600080fd5b506107f0611dd4565b005b3480156107fe57600080fd5b506108416004803603602081101561081557600080fd5b81019080803573ffffffffffffffffffffffffffffffffffffffff169060200190929190505050611ddf565b604051808215151515815260200191505060405180910390f35b34801561086757600080fd5b50610870611df3565b604051808273ffffffffffffffffffffffffffffffffffffffff1673ffffffffffffffffffffffffffffffffffffffff16815260200191505060405180910390f35b3480156108be57600080fd5b50610901600480360360208110156108d557600080fd5b81019080803573ffffffffffffffffffffffffffffffffffffffff169060200190929190505050611e1c565b005b34801561090f57600080fd5b506109526004803603602081101561092657600080fd5b81019080803573ffffffffffffffffffffffffffffffffffffffff169060200190929190505050611ea3565b604051808215151515815260200191505060405180910390f35b34801561097857600080fd5b50610981611eb7565b604051808215151515815260200191505060405180910390f35b3480156109a757600080fd5b506109d4600480360360208110156109be57600080fd5b8101908080359060200190929190505050611f0e565b005b3480156109e257600080fd5b50610a25600480360360208110156109f957600080fd5b81019080803573ffffffffffffffffffffffffffffffffffffffff169060200190929190505050612156565b604051808215151515815260200191505060405180910390f35b348015610a4b57600080fd5b50610d8b600480360360e0811015610a6257600080fd5b8101908080359060200190929190803573ffffffffffffffffffffffffffffffffffffffff16906020019092919080359060200190640100000000811115610aa957600080fd5b820183602082011115610abb57600080fd5b80359060200191846001830284011164010000000083111715610add57600080fd5b91908080601f016020809104026020016040519081016040528093929190818152602001838380828437600081840152601f19601f82011690508083019250505050505050919291929080359060200190640100000000811115610b4057600080fd5b820183602082011115610b5257600080fd5b80359060200191846001830284011164010000000083111715610b7457600080fd5b91908080601f016020809104026020016040519081016040528093929190818152602001838380828437600081840152601f19601f82011690508083019250505050505050919291929080359060200190640100000000811115610bd757600080fd5b820183602082011115610be957600080fd5b80359060200191846001830284011164010000000083111715610c0b57600080fd5b91908080601f016020809104026020016040519081016040528093929190818152602001838380828437600081840152601f19601f82011690508083019250505050505050919291929080359060200190640100000000811115610c6e57600080fd5b820183602082011115610c8057600080fd5b80359060200191846001830284011164010000000083111715610ca257600080fd5b91908080601f016020809104026020016040519081016040528093929190818152602001838380828437600081840152601f19601f82011690508083019250505050505050919291929080359060200190640100000000811115610d0557600080fd5b820183602082011115610d1757600080fd5b80359060200191846001830284011164010000000083111715610d3957600080fd5b91908080601f016020809104026020016040519081016040528093929190818152602001838380828437600081840152601f19601f820116905080830192505050505050509192919290505050612173565b005b348015610d9957600080fd5b50610dc660048036036020811015610db057600080fd5b810190808035906020019092919050505061244c565b005b348015610dd457600080fd5b50610ddd612694565b005b610e0b60048036036020811015610df557600080fd5b810190808035906020019092919050505061269f565b005b348015610e1957600080fd5b50610e22612aab565b604051808273ffffffffffffffffffffffffffffffffffffffff1673ffffffffffffffffffffffffffffffffffffffff16815260200191505060405180910390f35b348015610e7057600080fd5b50610eb360048036036020811015610e8757600080fd5b81019080803573ffffffffffffffffffffffffffffffffffffffff169060200190929190505050612ad1565b005b348015610ec157600080fd5b50610eee60048036036020811015610ed857600080fd5b8101908080359060200190929190505050612b57565b005b348015610efc57600080fd5b50610f2960048036036020811015610f1357600080fd5b8101908080359060200190929190505050612dce565b005b348015610f3757600080fd5b50610f40613045565b604051808273ffffffffffffffffffffffffffffffffffffffff1673ffffffffffffffffffffffffffffffffffffffff16815260200191505060405180910390f35b610f8b33611ddf565b610ffd576040517f08c379a000000000000000000000000000000000000000000000000000000000815260040180806020018281038252601a8152602001807f53656e646572206973206e6f74206120636f6e73756d6572202100000000000081525060200191505060405180910390fd5b6110068161306a565b50565b816002600781111561101757fe5b60086000838152602001908152602001600020600b0160009054906101000a900460ff16600781111561104657fe5b146110b9576040517f08c379a00000000000000000000000000000000000000000000000000000000081526004018080602001828103825260148152602001807f4974656d206973206e6f74207061636b6564202100000000000000000000000081525060200191505060405180910390fd5b6008600084815260200190815260200160002060030160009054906101000a900473ffffffffffffffffffffffffffffffffffffffff168073ffffffffffffffffffffffffffffffffffffffff163373ffffffffffffffffffffffffffffffffffffffff1614611191576040517f08c379a000000000000000000000000000000000000000000000000000000000815260040180806020018281038252601e8152602001807f4164647265737320646f65736e2774206d617463682073656e6465722021000081525060200191505060405180910390fd5b61119a33612156565b61120c576040517f08c379a00000000000000000000000000000000000000000000000000000000081526004018080602001828103825260188152602001807f53656e646572206973206e6f742061206661726d65722021000000000000000081525060200191505060405180910390fd5b8260086000868152602001908152602001600020600a0181905550600360086000868152602001908152602001600020600b0160006101000a81548160ff0219169083600781111561125a57fe5b02179055507fa96ae0fc3224ebd79eebfe54bd130cc9cb94416cddd1f2386115e00b72532468846040518082815260200191505060405180910390a150505050565b6000809054906101000a900473ffffffffffffffffffffffffffffffffffffffff1673ffffffffffffffffffffffffffffffffffffffff163373ffffffffffffffffffffffffffffffffffffffff16141561132b576000809054906101000a900473ffffffffffffffffffffffffffffffffffffffff1673ffffffffffffffffffffffffffffffffffffffff16ff5b565b806000600781111561133b57fe5b60086000838152602001908152602001600020600b0160009054906101000a900460ff16600781111561136a57fe5b146113dd576040517f08c379a00000000000000000000000000000000000000000000000000000000081526004018080602001828103825260178152602001807f4974656d206973206e6f7420686172766573746564202100000000000000000081525060200191505060405180910390fd5b6008600083815260200190815260200160002060020160009054906101000a900473ffffffffffffffffffffffffffffffffffffffff168073ffffffffffffffffffffffffffffffffffffffff163373ffffffffffffffffffffffffffffffffffffffff16146114b5576040517f08c379a000000000000000000000000000000000000000000000000000000000815260040180806020018281038252601e8152602001807f4164647265737320646f65736e2774206d617463682073656e6465722021000081525060200191505060405180910390fd5b6114be33612156565b611530576040517f08c379a00000000000000000000000000000000000000000000000000000000081526004018080602001828103825260188152602001807f53656e646572206973206e6f742061206661726d65722021000000000000000081525060200191505060405180910390fd5b600160086000858152602001908152602001600020600b0160006101000a81548160ff0219169083600781111561156357fe5b02179055507f5afe3b1bf87069693c075da5c22a98d63d1aef98a30dbbe538d0781a98b77ee5836040518082815260200191505060405180910390a1505050565b60006115b16005836130bb565b9050919050565b6115c1336131b6565b565b6115cc33613207565b565b600080600060606000806000806000600860008b8152602001908152602001600020600001549850600860008b8152602001908152602001600020600101549750600860008b8152602001908152602001600020600801549650600860008b81526020019081526020016000206009018054600181600116156101000203166002900480601f0160208091040260200160405190810160405280929190818152602001828054600181600116156101000203166002900480156116d25780601f106116a7576101008083540402835291602001916116d2565b820191906000526020600020905b8154815290600101906020018083116116b557829003601f168201915b50505050509550600860008b8152602001908152602001600020600a01549450600860008b8152602001908152602001600020600b0160009054906101000a900460ff16600781111561172157fe5b9350600860008b8152602001908152602001600020600b0160019054906101000a900473ffffffffffffffffffffffffffffffffffffffff169250600860008b8152602001908152602001600020600c0160009054906101000a900473ffffffffffffffffffffffffffffffffffffffff169150600860008b8152602001908152602001600020600d0160009054906101000a900473ffffffffffffffffffffffffffffffffffffffff1690508888888888888888889850985098509850985098509850985098509193959799909294969850565b6117fe611eb7565b611870576040517f08c379a000000000000000000000000000000000000000000000000000000000815260040180806020018281038252601f8152602001807f4f6e6c7920746865206f776e65722063616e206765742061636365737320210081525060200191505060405180910390fd5b600073ffffffffffffffffffffffffffffffffffffffff166000809054906101000a900473ffffffffffffffffffffffffffffffffffffffff1673ffffffffffffffffffffffffffffffffffffffff167f5c486528ec3e3f0ea91181cff8116f02bfa350e03b8b6f12e00765adbb5af85c60405160405180910390a360008060006101000a81548173ffffffffffffffffffffffffffffffffffffffff021916908373ffffffffffffffffffffffffffffffffffffffff160217905550565b61193833611ea3565b6119aa576040517f08c379a000000000000000000000000000000000000000000000000000000000815260040180806020018281038252601d8152602001807f53656e646572206973206e6f742061206469737472696275746f72202100000081525060200191505060405180910390fd5b6119b381613258565b50565b600080600080606080606080600860008a8152602001908152602001600020600001549750600860008a8152602001908152602001600020600101549650600860008a815260200190815260200160002060020160009054906101000a900473ffffffffffffffffffffffffffffffffffffffff169550600860008a815260200190815260200160002060030160009054906101000a900473ffffffffffffffffffffffffffffffffffffffff169450600860008a81526020019081526020016000206004018054600181600116156101000203166002900480601f016020809104026020016040519081016040528092919081815260200182805460018160011615610100020316600290048015611b105780601f10611ae557610100808354040283529160200191611b10565b820191906000526020600020905b815481529060010190602001808311611af357829003601f168201915b50505050509350600860008a81526020019081526020016000206005018054600181600116156101000203166002900480601f016020809104026020016040519081016040528092919081815260200182805460018160011615610100020316600290048015611bc15780601f10611b9657610100808354040283529160200191611bc1565b820191906000526020600020905b815481529060010190602001808311611ba457829003601f168201915b50505050509250600860008a81526020019081526020016000206006018054600181600116156101000203166002900480601f016020809104026020016040519081016040528092919081815260200182805460018160011615610100020316600290048015611c725780601f10611c4757610100808354040283529160200191611c72565b820191906000526020600020905b815481529060010190602001808311611c5557829003601f168201915b50505050509150600860008a81526020019081526020016000206007018054600181600116156101000203166002900480601f016020809104026020016040519081016040528092919081815260200182805460018160011615610100020316600290048015611d235780601f10611cf857610100808354040283529160200191611d23565b820191906000526020600020905b815481529060010190602001808311611d0657829003601f168201915b50505050509050878787878787878797509750975097509750975097509750919395975091939597565b611d5633612156565b611dc8576040517f08c379a00000000000000000000000000000000000000000000000000000000081526004018080602001828103825260188152602001807f53656e646572206973206e6f742061206661726d65722021000000000000000081525060200191505060405180910390fd5b611dd1816132a9565b50565b611ddd33613303565b565b6000611dec6001836130bb565b9050919050565b60008060009054906101000a900473ffffffffffffffffffffffffffffffffffffffff16905090565b611e25336115a4565b611e97576040517f08c379a000000000000000000000000000000000000000000000000000000000815260040180806020018281038252601a8152602001807f53656e646572206973206e6f7420612072657461696c6572202100000000000081525060200191505060405180910390fd5b611ea08161335d565b50565b6000611eb06002836130bb565b9050919050565b60008060009054906101000a900473ffffffffffffffffffffffffffffffffffffffff1673ffffffffffffffffffffffffffffffffffffffff163373ffffffffffffffffffffffffffffffffffffffff1614905090565b8060056007811115611f1c57fe5b60086000838152602001908152602001600020600b0160009054906101000a900460ff166007811115611f4b57fe5b14611fbe576040517f08c379a00000000000000000000000000000000000000000000000000000000081526004018080602001828103825260158152602001807f4974656d206973206e6f7420736869707065642021000000000000000000000081525060200191505060405180910390fd5b611fc7336115a4565b612039576040517f08c379a000000000000000000000000000000000000000000000000000000000815260040180806020018281038252601a8152602001807f53656e646572206973206e6f7420612072657461696c6572202100000000000081525060200191505060405180910390fd5b336008600084815260200190815260200160002060020160006101000a81548173ffffffffffffffffffffffffffffffffffffffff021916908373ffffffffffffffffffffffffffffffffffffffff1602179055503360086000848152602001908152602001600020600c0160006101000a81548173ffffffffffffffffffffffffffffffffffffffff021916908373ffffffffffffffffffffffffffffffffffffffff160217905550600660086000848152602001908152602001600020600b0160006101000a81548160ff0219169083600781111561211657fe5b02179055507fa8142743f8f70a4c26f3691cf4ed59718381fb2f18070ec52be1f1022d855557826040518082815260200191505060405180910390a15050565b600061216c8260036130bb90919063ffffffff16565b9050919050565b61217c33612156565b6121ee576040517f08c379a00000000000000000000000000000000000000000000000000000000081526004018080602001828103825260188152602001807f53656e646572206973206e6f742061206661726d65722021000000000000000081525060200191505060405180910390fd5b60075460086000898152602001908152602001600020600001819055506006546008600089815260200190815260200160002060010181905550856008600089815260200190815260200160002060020160006101000a81548173ffffffffffffffffffffffffffffffffffffffff021916908373ffffffffffffffffffffffffffffffffffffffff160217905550856008600089815260200190815260200160002060030160006101000a81548173ffffffffffffffffffffffffffffffffffffffff021916908373ffffffffffffffffffffffffffffffffffffffff160217905550846008600089815260200190815260200160002060040190805190602001906122fc92919061379b565b508360086000898152602001908152602001600020600501908051906020019061232792919061379b565b508260086000898152602001908152602001600020600601908051906020019061235292919061379b565b508160086000898152602001908152602001600020600701908051906020019061237d92919061379b565b5060075487016008600089815260200190815260200160002060080181905550806008600089815260200190815260200160002060090190805190602001906123c792919061379b565b50600060086000898152602001908152602001600020600b0160006101000a81548160ff021916908360078111156123fb57fe5b02179055506001600754016007819055507f8e55ccfc9778ff8eba1646d765cf1982537ce0f9257054a17b48aad745250183876040518082815260200191505060405180910390a150505050505050565b806006600781111561245a57fe5b60086000838152602001908152602001600020600b0160009054906101000a900460ff16600781111561248957fe5b146124fc576040517f08c379a00000000000000000000000000000000000000000000000000000000081526004018080602001828103825260168152602001807f4974656d206973206e6f7420726563656976656420210000000000000000000081525060200191505060405180910390fd5b61250533611ddf565b612577576040517f08c379a000000000000000000000000000000000000000000000000000000000815260040180806020018281038252601a8152602001807f53656e646572206973206e6f74206120636f6e73756d6572202100000000000081525060200191505060405180910390fd5b336008600084815260200190815260200160002060020160006101000a81548173ffffffffffffffffffffffffffffffffffffffff021916908373ffffffffffffffffffffffffffffffffffffffff1602179055503360086000848152602001908152602001600020600d0160006101000a81548173ffffffffffffffffffffffffffffffffffffffff021916908373ffffffffffffffffffffffffffffffffffffffff160217905550600760086000848152602001908152602001600020600b0160006101000a81548160ff0219169083600781111561265457fe5b02179055507f653d56639fee6b566a5c804764e9689de38645f0b733df89a36a1b7b42173dd8826040518082815260200191505060405180910390a15050565b61269d3361336b565b565b80600360078111156126ad57fe5b60086000838152602001908152602001600020600b0160009054906101000a900460ff1660078111156126dc57fe5b1461274f576040517f08c379a00000000000000000000000000000000000000000000000000000000081526004018080602001828103825260168152602001807f4974656d206973206e6f7420666f722073616c6520210000000000000000000081525060200191505060405180910390fd5b60086000838152602001908152602001600020600a0154803410156127dc576040517f08c379a000000000000000000000000000000000000000000000000000000000815260040180806020018281038252601b8152602001807f5061696420616d6f756e74206973206e6f7420656e6f7567682021000000000081525060200191505060405180910390fd5b826127e633611ea3565b612858576040517f08c379a000000000000000000000000000000000000000000000000000000000815260040180806020018281038252601d8152602001807f53656e646572206973206e6f742061206469737472696275746f72202100000081525060200191505060405180910390fd5b336008600086815260200190815260200160002060020160006101000a81548173ffffffffffffffffffffffffffffffffffffffff021916908373ffffffffffffffffffffffffffffffffffffffff1602179055503360086000868152602001908152602001600020600b0160016101000a81548173ffffffffffffffffffffffffffffffffffffffff021916908373ffffffffffffffffffffffffffffffffffffffff160217905550600460086000868152602001908152602001600020600b0160006101000a81548160ff0219169083600781111561293557fe5b02179055506008600085815260200190815260200160002060030160009054906101000a900473ffffffffffffffffffffffffffffffffffffffff1673ffffffffffffffffffffffffffffffffffffffff166108fc60086000878152602001908152602001600020600a01549081150290604051600060405180830381858888f193505050501580156129cc573d6000803e3d6000fd5b507f92f64ca637d023f354075a4be751b169c1a8a9ccb6d33cdd0cb3520543995727846040518082815260200191505060405180910390a1600060086000838152602001908152602001600020600a015490506000813403905060086000848152602001908152602001600020600d0160009054906101000a900473ffffffffffffffffffffffffffffffffffffffff1673ffffffffffffffffffffffffffffffffffffffff166108fc829081150290604051600060405180830381858888f19350505050158015612aa2573d6000803e3d6000fd5b50505050505050565b600460009054906101000a900473ffffffffffffffffffffffffffffffffffffffff1681565b612ad9611eb7565b612b4b576040517f08c379a000000000000000000000000000000000000000000000000000000000815260040180806020018281038252601f8152602001807f4f6e6c7920746865206f776e65722063616e206765742061636365737320210081525060200191505060405180910390fd5b612b5481613379565b50565b8060016007811115612b6557fe5b60086000838152602001908152602001600020600b0160009054906101000a900460ff166007811115612b9457fe5b14612c07576040517f08c379a00000000000000000000000000000000000000000000000000000000081526004018080602001828103825260178152602001807f4974656d206973206e6f742070726f636573736564202100000000000000000081525060200191505060405180910390fd5b6008600083815260200190815260200160002060030160009054906101000a900473ffffffffffffffffffffffffffffffffffffffff168073ffffffffffffffffffffffffffffffffffffffff163373ffffffffffffffffffffffffffffffffffffffff1614612cdf576040517f08c379a000000000000000000000000000000000000000000000000000000000815260040180806020018281038252601e8152602001807f4164647265737320646f65736e2774206d617463682073656e6465722021000081525060200191505060405180910390fd5b612ce833612156565b612d5a576040517f08c379a00000000000000000000000000000000000000000000000000000000081526004018080602001828103825260188152602001807f53656e646572206973206e6f742061206661726d65722021000000000000000081525060200191505060405180910390fd5b600260086000858152602001908152602001600020600b0160006101000a81548160ff02191690836007811115612d8d57fe5b02179055507f9b3b66e2380b690bae22c73ef1428fb0c91e72fe14a4b6defa13035214187aff836040518082815260200191505060405180910390a1505050565b8060046007811115612ddc57fe5b60086000838152602001908152602001600020600b0160009054906101000a900460ff166007811115612e0b57fe5b14612e7e576040517f08c379a00000000000000000000000000000000000000000000000000000000081526004018080602001828103825260128152602001807f4974656d206973206e6f7420736f6c642021000000000000000000000000000081525060200191505060405180910390fd5b60086000838152602001908152602001600020600b0160019054906101000a900473ffffffffffffffffffffffffffffffffffffffff168073ffffffffffffffffffffffffffffffffffffffff163373ffffffffffffffffffffffffffffffffffffffff1614612f56576040517f08c379a000000000000000000000000000000000000000000000000000000000815260040180806020018281038252601e8152602001807f4164647265737320646f65736e2774206d617463682073656e6465722021000081525060200191505060405180910390fd5b612f5f33611ea3565b612fd1576040517f08c379a000000000000000000000000000000000000000000000000000000000815260040180806020018281038252601d8152602001807f53656e646572206973206e6f742061206469737472696275746f72202100000081525060200191505060405180910390fd5b600560086000858152602001908152602001600020600b0160006101000a81548160ff0219169083600781111561300457fe5b02179055507ff00b9a5725b80c54016f42114f6ed7792d22eecb116011c4afac29c57bef6c95836040518082815260200191505060405180910390a1505050565b6000809054906101000a900473ffffffffffffffffffffffffffffffffffffffff1681565b6130756001826134da565b8073ffffffffffffffffffffffffffffffffffffffff167f28b26e7a3d20aedbc5f8f2ebf7da671c0491723a2b78f47a097b0e46dee0714260405160405180910390a250565b60008073ffffffffffffffffffffffffffffffffffffffff168273ffffffffffffffffffffffffffffffffffffffff16141561315f576040517f08c379a00000000000000000000000000000000000000000000000000000000081526004018080602001828103825260198152602001807f496e76616c6964206163636f756e74206164647265737320210000000000000081525060200191505060405180910390fd5b8260000160008373ffffffffffffffffffffffffffffffffffffffff1673ffffffffffffffffffffffffffffffffffffffff16815260200190815260200160002060009054906101000a900460ff16905092915050565b6131c160018261363b565b8073ffffffffffffffffffffffffffffffffffffffff167fe3f5ed5f263f1f01764a96edfc7d025f511ec5f7d180e8816908b78bcf74f09860405160405180910390a250565b61321260028261363b565b8073ffffffffffffffffffffffffffffffffffffffff167f126174f6cf49c81cdb4a9214c6b8f037bef55b4ec31e4fc776cea2a1c8a88d5960405160405180910390a250565b6132636002826134da565b8073ffffffffffffffffffffffffffffffffffffffff167fddbf200aa634dc3fb81cfd68583dd1040d1c751d335e1d86b631bde3e977fea860405160405180910390a250565b6132bd8160036134da90919063ffffffff16565b8073ffffffffffffffffffffffffffffffffffffffff167f2e0ded4123377a3c2bc9a26f1717655a129e2f20752924d42e730ec89c83dbd060405160405180910390a250565b61331781600361363b90919063ffffffff16565b8073ffffffffffffffffffffffffffffffffffffffff167fa5e0f060af304ab17dd418c7927e3da3ae7868189bf387aee09ab179ccc572f260405160405180910390a250565b6133686005826134da565b50565b61337660058261363b565b50565b600073ffffffffffffffffffffffffffffffffffffffff168173ffffffffffffffffffffffffffffffffffffffff16141561341c576040517f08c379a00000000000000000000000000000000000000000000000000000000081526004018080602001828103825260118152602001807f496e76616c69642061646472657373202100000000000000000000000000000081525060200191505060405180910390fd5b8073ffffffffffffffffffffffffffffffffffffffff166000809054906101000a900473ffffffffffffffffffffffffffffffffffffffff1673ffffffffffffffffffffffffffffffffffffffff167f5c486528ec3e3f0ea91181cff8116f02bfa350e03b8b6f12e00765adbb5af85c60405160405180910390a3806000806101000a81548173ffffffffffffffffffffffffffffffffffffffff021916908373ffffffffffffffffffffffffffffffffffffffff16021790555050565b600073ffffffffffffffffffffffffffffffffffffffff168173ffffffffffffffffffffffffffffffffffffffff16141561357d576040517f08c379a00000000000000000000000000000000000000000000000000000000081526004018080602001828103825260198152602001807f496e76616c6964206163636f756e74206164647265737320210000000000000081525060200191505060405180910390fd5b61358782826130bb565b156135dd576040517f08c379a00000000000000000000000000000000000000000000000000000000081526004018080602001828103825260238152602001806138656023913960400191505060405180910390fd5b60018260000160008373ffffffffffffffffffffffffffffffffffffffff1673ffffffffffffffffffffffffffffffffffffffff16815260200190815260200160002060006101000a81548160ff0219169083151502179055505050565b600073ffffffffffffffffffffffffffffffffffffffff168173ffffffffffffffffffffffffffffffffffffffff1614156136de576040517f08c379a00000000000000000000000000000000000000000000000000000000081526004018080602001828103825260198152602001807f496e76616c6964206163636f756e74206164647265737320210000000000000081525060200191505060405180910390fd5b6136e882826130bb565b61373d576040517f08c379a00000000000000000000000000000000000000000000000000000000081526004018080602001828103825260248152602001806138416024913960400191505060405180910390fd5b60008260000160008373ffffffffffffffffffffffffffffffffffffffff1673ffffffffffffffffffffffffffffffffffffffff16815260200190815260200160002060006101000a81548160ff0219169083151502179055505050565b828054600181600116156101000203166002900490600052602060002090601f016020900481019282601f106137dc57805160ff191683800117855561380a565b8280016001018555821561380a579182015b828111156138095782518255916020019190600101906137ee565b5b509050613817919061381b565b5090565b61383d91905b80821115613839576000816000905550600101613821565b5090565b9056fe54686973206163636f756e7420646f65736e277420686176652074686520726f6c65202154686973206163636f756e7420616c7265616479206861732074686520726f6c652021a265627a7a72315820a1c9410ed46524e587b4b47424093a54b85371730f44d7b2f6d46061d96df7b764736f6c6343000510003254686973206163636f756e7420616c7265616479206861732074686520726f6c652021",
  "source": "pragma solidity ^0.5.0;\n\nimport '../coffeecore/Ownable.sol';\nimport '../coffeeaccesscontrol/ConsumerRole.sol';\nimport '../coffeeaccesscontrol/DistributorRole.sol';\nimport '../coffeeaccesscontrol/FarmerRole.sol';\nimport '../coffeeaccesscontrol/RetailerRole.sol';\n\n// Define a contract 'Supplychain'\ncontract SupplyChain is Ownable, ConsumerRole, DistributorRole, FarmerRole, RetailerRole {\n\n  // Define 'owner'\n  //address payable owner;\n\n  // Define a variable called 'upc' for Universal Product Code (UPC)\n  uint  upc;\n\n  // Define a variable called 'sku' for Stock Keeping Unit (SKU)\n  uint  sku;\n\n  // Define a public mapping 'items' that maps the UPC to an Item.\n  mapping (uint => Item) items;\n\n  // Define a public mapping 'itemsHistory' that maps the UPC to an array of TxHash,\n  // that track its journey through the supply chain -- to be sent from DApp.\n  mapping (uint => string[]) itemsHistory;\n\n  // Define enum 'State' with the following values:\n  enum State\n  {\n    Harvested,  // 0\n    Processed,  // 1\n    Packed,     // 2\n    ForSale,    // 3\n    Sold,       // 4\n    Shipped,    // 5\n    Received,   // 6\n    Purchased   // 7\n    }\n\n  State constant defaultState = State.Harvested;\n\n  // Define a struct 'Item' with the following fields:\n  struct Item {\n    uint    sku;  // Stock Keeping Unit (SKU)\n    uint    upc; // Universal Product Code (UPC), generated by the Farmer, goes on the package, can be verified by the Consumer\n    address ownerID;  // Metamask-Ethereum address of the current owner as the product moves through 8 stages\n    address payable originFarmerID; // Metamask-Ethereum address of the Farmer\n    string  originFarmName; // Farmer Name\n    string  originFarmInformation;  // Farmer Information\n    string  originFarmLatitude; // Farm Latitude\n    string  originFarmLongitude;  // Farm Longitude\n    uint    productID;  // Product ID potentially a combination of upc + sku\n    string  productNotes; // Product Notes\n    uint    productPrice; // Product Price\n    State   itemState;  // Product State as represented in the enum above\n    address distributorID;  // Metamask-Ethereum address of the Distributor\n    address retailerID; // Metamask-Ethereum address of the Retailer\n    address payable consumerID; // Metamask-Ethereum address of the Consumer\n  }\n\n  // Define 8 events with the same 8 state values and accept 'upc' as input argument\n  event Harvested(uint upc);\n  event Processed(uint upc);\n  event Packed(uint upc);\n  event ForSale(uint upc);\n  event Sold(uint upc);\n  event Shipped(uint upc);\n  event Received(uint upc);\n  event Purchased(uint upc);\n\n  // Define a modifer that checks to see if msg.sender == owner of the contract\n /* modifier onlyOwner() {\n    require(msg.sender == owner, \"Sender is not the owner !\");\n    _;\n  }*/\n\n  // Define a modifer that verifies the Caller\n  modifier verifyCaller (address _address) {\n    require(msg.sender == _address, \"Address doesn't match sender !\");\n    _;\n  }\n\n  // Define a modifier that checks if the paid amount is sufficient to cover the price\n  modifier paidEnough(uint _price) {\n    require(msg.value >= _price, \"Paid amount is not enough !\");\n    _;\n  }\n\n  // Define a modifier that checks the price and refunds the remaining balance\n  modifier checkValue(uint _upc) {\n    _;\n    uint _price = items[_upc].productPrice;\n    uint amountToReturn = msg.value - _price;\n    items[_upc].consumerID.transfer(amountToReturn);\n  }\n\n  // Define a modifier that checks if an item.state of a upc is Harvested\n  modifier harvested(uint _upc) {\n    require(items[_upc].itemState == State.Harvested, \"Item is not harvested !\");\n    _;\n  }\n\n  // Define a modifier that checks if an item.state of a upc is Processed\n  modifier processed(uint _upc) {\n    require(items[_upc].itemState == State.Processed, \"Item is not processed !\");\n    _;\n  }\n\n  // Define a modifier that checks if an item.state of a upc is Packed\n  modifier packed(uint _upc) {\n    require(items[_upc].itemState == State.Packed, \"Item is not packed !\");\n    _;\n  }\n\n  // Define a modifier that checks if an item.state of a upc is ForSale\n  modifier forSale(uint _upc) {\n    require(items[_upc].itemState == State.ForSale, \"Item is not for sale !\");\n    _;\n  }\n\n  // Define a modifier that checks if an item.state of a upc is Sold\n  modifier sold(uint _upc) {\n    require(items[_upc].itemState == State.Sold, \"Item is not sold !\");\n    _;\n  }\n\n  // Define a modifier that checks if an item.state of a upc is Shipped\n  modifier shipped(uint _upc) {\n    require(items[_upc].itemState == State.Shipped, \"Item is not shipped !\");\n    _;\n  }\n\n  // Define a modifier that checks if an item.state of a upc is Received\n  modifier received(uint _upc) {\n    require(items[_upc].itemState == State.Received, \"Item is not received !\");\n    _;\n  }\n\n  // Define a modifier that checks if an item.state of a upc is Purchased\n  modifier purchased(uint _upc) {\n    require(items[_upc].itemState == State.Purchased, \"Item is not purchased !\");\n    _;\n  }\n\n  // In the constructor set 'owner' to the address that instantiated the contract\n  // and set 'sku' to 1\n  // and set 'upc' to 1\n  constructor() public payable {\n    origOwner = msg.sender;\n    sku = 1;\n    upc = 1;\n  }\n\n  // Define a function 'kill' if required\n  function kill() public {\n    if (msg.sender == origOwner) {\n      selfdestruct(origOwner);\n    }\n  }\n\n  // Define a function 'harvestItem' that allows a farmer to mark an item 'Harvested'\n  function harvestItem(uint _upc, address payable _originFarmerID, string memory _originFarmName, string memory _originFarmInformation,\n              string memory _originFarmLatitude, string memory _originFarmLongitude, string memory _productNotes) public onlyFarmer\n  {\n    // Add the new item as part of Harvest\n    items[_upc].sku = sku;\n    items[_upc].upc = upc;\n    items[_upc].ownerID = _originFarmerID;\n    items[_upc].originFarmerID = _originFarmerID;\n    items[_upc].originFarmName = _originFarmName;\n    items[_upc].originFarmInformation = _originFarmInformation;\n    items[_upc].originFarmLatitude = _originFarmLatitude;\n    items[_upc].originFarmLongitude = _originFarmLongitude;\n    items[_upc].productID = _upc + sku;\n    items[_upc].productNotes = _productNotes;\n    items[_upc].itemState = State.Harvested;\n\n    // Increment sku\n    sku = sku + 1;\n\n    // Emit the appropriate event\n    emit Harvested(_upc);\n  }\n\n  // Define a function 'processtItem' that allows a farmer to mark an item 'Processed'\n  function processItem(uint _upc) public\n  // Call modifier to check if upc has passed previous supply chain stage\n  harvested(_upc)\n  // Call modifier to verify caller of this function\n  verifyCaller(items[_upc].ownerID)\n  onlyFarmer\n  {\n    // Update the appropriate fields\n    items[_upc].itemState = State.Processed;\n    // Emit the appropriate event\n    emit Processed(_upc);\n  }\n\n  // Define a function 'packItem' that allows a farmer to mark an item 'Packed'\n  function packItem(uint _upc) public\n  // Call modifier to check if upc has passed previous supply chain stage\n  processed(_upc)\n  // Call modifier to verify caller of this function\n  verifyCaller(items[_upc].originFarmerID)\n  onlyFarmer\n  {\n    // Update the appropriate fields\n    items[_upc].itemState = State.Packed;\n    // Emit the appropriate event\n    emit Packed(_upc);\n  }\n\n  // Define a function 'sellItem' that allows a farmer to mark an item 'ForSale'\n  function sellItem(uint _upc, uint _price) public\n  // Call modifier to check if upc has passed previous supply chain stage\n  packed(_upc)\n  // Call modifier to verify caller of this function\n  verifyCaller(items[_upc].originFarmerID)\n  onlyFarmer\n  {\n    // Update the appropriate fields\n    items[_upc].productPrice = _price;\n    items[_upc].itemState = State.ForSale;\n    // Emit the appropriate event\n    emit ForSale(_upc);\n  }\n\n  // Define a function 'buyItem' that allows the disributor to mark an item 'Sold'\n  // Use the above defined modifiers to check if the item is available for sale, if the buyer has paid enough,\n  // and any excess ether sent is refunded back to the buyer\n  function buyItem(uint _upc) public payable\n    // Call modifier to check if upc has passed previous supply chain stage\n  forSale(_upc)\n    // Call modifer to check if buyer has paid enough\n  paidEnough(items[_upc].productPrice)\n    // Call modifer to send any excess ether back to buyer\n  checkValue(_upc)\n  onlyDistributor\n    {\n    // Update the appropriate fields - ownerID, distributorID, itemState\n    items[_upc].ownerID = msg.sender;\n    items[_upc].distributorID = msg.sender;\n    items[_upc].itemState = State.Sold;\n\n    // Transfer money to farmer\n    items[_upc].originFarmerID.transfer(items[_upc].productPrice);\n    // emit the appropriate event\n    emit Sold(_upc);\n  }\n\n  // Define a function 'shipItem' that allows the distributor to mark an item 'Shipped'\n  // Use the above modifers to check if the item is sold\n  function shipItem(uint _upc) public\n    // Call modifier to check if upc has passed previous supply chain stage\n    sold(_upc)\n    // Call modifier to verify caller of this function\n    verifyCaller(items[_upc].distributorID)\n    onlyDistributor\n    {\n    // Update the appropriate fields\n    items[_upc].itemState = State.Shipped;\n    // Emit the appropriate event\n    emit Shipped(_upc);\n  }\n\n  // Define a function 'receiveItem' that allows the retailer to mark an item 'Received'\n  // Use the above modifiers to check if the item is shipped\n  function receiveItem(uint _upc) public\n    // Call modifier to check if upc has passed previous supply chain stage\n    shipped(_upc)\n    // Access Control List enforced by calling Smart Contract / DApp\n    onlyRetailer\n    {\n    // Update the appropriate fields - ownerID, retailerID, itemState\n    items[_upc].ownerID = msg.sender;\n    items[_upc].retailerID = msg.sender;\n    items[_upc].itemState = State.Received;\n\n    // Emit the appropriate event\n    emit Received(_upc);\n  }\n\n  // Define a function 'purchaseItem' that allows the consumer to mark an item 'Purchased'\n  // Use the above modifiers to check if the item is received\n  function purchaseItem(uint _upc) public\n    // Call modifier to check if upc has passed previous supply chain stage\n    received(_upc)\n    // Access Control List enforced by calling Smart Contract / DApp\n    onlyConsumer\n    {\n    // Update the appropriate fields - ownerID, consumerID, itemState\n    items[_upc].ownerID = msg.sender;\n    items[_upc].consumerID = msg.sender;\n    items[_upc].itemState = State.Purchased;\n\n    // Emit the appropriate event\n    emit Purchased(_upc);\n  }\n\n  // Define a function 'fetchItemBufferOne' that fetches the data\n  function fetchItemBufferOne(uint _upc) public view returns\n  (\n  uint    itemSKU,\n  uint    itemUPC,\n  address ownerID,\n  address originFarmerID,\n  string  memory originFarmName,\n  string  memory originFarmInformation,\n  string  memory originFarmLatitude,\n  string  memory originFarmLongitude\n  )\n  {\n  // Assign values to the 8 parameters\n  itemSKU = items[_upc].sku;\n  itemUPC = items[_upc].upc;\n  ownerID = items[_upc].ownerID;\n  originFarmerID = items[_upc].originFarmerID;\n  originFarmName = items[_upc].originFarmName;\n  originFarmInformation = items[_upc].originFarmInformation;\n  originFarmLatitude = items[_upc].originFarmLatitude;\n  originFarmLongitude = items[_upc].originFarmLongitude;\n\n  return\n  (\n  itemSKU,\n  itemUPC,\n  ownerID,\n  originFarmerID,\n  originFarmName,\n  originFarmInformation,\n  originFarmLatitude,\n  originFarmLongitude\n  );\n  }\n\n  // Define a function 'fetchItemBufferTwo' that fetches the data\n  function fetchItemBufferTwo(uint _upc) public view returns\n  (\n  uint    itemSKU,\n  uint    itemUPC,\n  uint    productID,\n  string  memory productNotes,\n  uint    productPrice,\n  uint    itemState,\n  address distributorID,\n  address retailerID,\n  address consumerID\n  )\n  {\n    // Assign values to the 9 parameters\n  itemSKU = items[_upc].sku;\n  itemUPC = items[_upc].upc;\n  productID = items[_upc].productID;\n  productNotes = items[_upc].productNotes;\n  productPrice = items[_upc].productPrice;\n  itemState = uint(items[_upc].itemState);\n  distributorID = items[_upc].distributorID;\n  retailerID = items[_upc].retailerID;\n  consumerID = items[_upc].consumerID;\n\n  return\n  (\n  itemSKU,\n  itemUPC,\n  productID,\n  productNotes,\n  productPrice,\n  itemState,\n  distributorID,\n  retailerID,\n  consumerID\n  );\n  }\n}\n",
  "sourcePath": "C:\\Users\\Gebruiker\\Desktop\\Udacity courses\\Blockchain\\nd1309-Project-6b-Example-Template-master\\project-6\\contracts\\coffeebase\\SupplyChain.sol",
  "compiler": {
    "name": "solc",
    "version": "0.5.16+commit.9c3226ce.Emscripten.clang"
  },
  "schemaVersion": "3.0.23",
  "updatedAt": "2020-04-08T19:48:16.670Z",
  "networkType": "ethereum",
  "devdoc": {
    "methods": {}
  },
  "userdoc": {
    "methods": {
      "isOwner()": {
        "notice": "Check if the calling address is the owner of the contract"
      },
      "owner()": {
        "notice": "Look up the address of the owner"
      },
      "renounceOwnership()": {
        "notice": "Define a function to renounce ownerhip"
      },
      "transferOwnership(address)": {
        "notice": "Define a public function to transfer ownership"
      }
    }
  }
}